:020000040000FA
:08000000803102288731F52F41
:100CC40050018C0108005101910193019201080027
:100CD40071084001DE007008DD0008007108400161
:100CE400E2007008E100080071084001E0007008AB
:100CF400DF000800F100710886318826863108007B
:100D0400640080010131890B832E0034F0004E0110
:100D14008D1D8D2E8E2E892E700842019A0008009A
:100D24008631EE2686318631652686318631622605
:100D340086318631CC26863108005830FD007D0886
:100D44004001DA005708CF005608CE005A30FD00A3
:100D54007D08D000003087311427863108008631A1
:100D64009226863100304001D6008830D700863183
:100D74009F26863103304001DC008A30DB00553089
:100D8400890BC22EDB0BC22EDC0BC22E0032B42E1A
:100D940080310228083042019F0080309D002430B9
:100DA4009E0019309B009C010030F0000030F100DF
:100DB4008631702686310030F0000030F100863133
:100DC400762686310030F0000030F10086316A2644
:100DD40086314001C80108004001980199019A0137
:100DE4003F30920070309300FE309400FE307E015C
:100DF400CE00F030C3003730B800C401B901CF01D0
:100E0400BA01C501D0013730BB00F030C600FF3055
:100E1400D1003F30BC00F030C700FF30D2000530B5
:100E2400A00008004001D3004F08D5004E08D400AC
:100E3400C001C1012E2F5430D1005108FA005008CE
:100E4400D2005208FB00530887317B2787317A0888
:100E54004001C0077B08C13D540884005508850043
:100E64001200031D362F372F1D2F4108CF004008D5
:100E7400CE00080074080319402F412F462F740830
:100E8400031D452F462F4B2F720886317C26873150
:100E94007A2F7408033E86008701160001040319A3
:100EA400542F552F722F7408033E86008701403F4C
:100EB400F500413FF600740A86008701403FF700C1
:100EC400413FF8007808803AF9007608803A7902C0
:100ED400031D6E2F750877020318712F722F7A2F56
:100EE400740A860087010130810741310318810AA1
:100EF4000800FC007A0886008701403F4001C900D1
:100F0400413FCA00490884004A0885001200253A76
:100F1400031D8D2F8E2FD22F7A0886008701013072
:100F2400810741310318810AC201C301C601C70107
:100F3400FF30C400FF30C5007A0886008701403FB7
:100F4400C900413FCA00490884004A0885001200CC
:100F5400253A031DAE2FAF2FC72F7A0886008701CD
:100F64000130810741310318810A2530F200003035
:100F7400F3007C08C9004908F40087313C27873115
:100F84000130FA000030FB00F42F7A088600870154
:100F94000130810741310318810AFA01FB01F42F62
:100FA4007A0886008701403FC900413FCA004908CA
:100FB40084004A0885000008CB00CC014B08F200ED
:100FC4004C08F3007C08CD004D08F40087313C2721
:100FD40087317A088600870101308107413103187F
:100FE400810AC22F08002030840000308500293097
:100FF40086318226873140018631B12E48346534EA
:101004006C346C346F34203457346F3472346C3431
:0C1014006434213420340D340A340034DC
:020000040001F9
:04000E00ED3FE737A4
:04001400FF3FFF3F6C
:00000001FF
