:04000000803114280F
:100008007E1480314E01161E0A280B2812280C1E59
:100018000E280F2812288231082280317E1009000C
:100028008031162820308400003085002D30813141
:10003800F82180317E1040018131772974087504D8
:100048000319272828282E2874087504031D2D282D
:100058002E28332872088131A22180317E28740825
:1000680086007508870049311600010403193D28E8
:100078003E285E2874088600750887004931403F8D
:10008800F600413FF7007408860075088700423182
:10009800403FF800413FF9007908803AFA007708B4
:1000A800803A7A02031D5A287608780203185D28D8
:1000B8005E287E2874088600750887004231740817
:1000C800840075088500403F0007F6000131413F74
:1000D800003DF700760886007708870072088100DF
:1000E8007408860075088700423101308107413164
:1000F8000318810A080040014F0886008701403F25
:10010800D100413FD20051088400520885001200F6
:10011800253A031D90289128AE284F0886008701AC
:100128000130810741310318810AC001C101031060
:10013800003003180130CC00FF30C200FF30C3008C
:1001480040014F08860087010130810741310318BB
:10015800810AC8284F0886008701403FD100413FE7
:10016800D20051088400520885000008D300D40149
:100178005308F2005408F3004E08F5004D08F40047
:10018800803122208031A42808005B3401340034F7
:100198000034003400340434023400340034B13400
:1001A80001340034003400340034003400340034A6
:1001B8000034003400340034003400340034003497
:1001C8000034003400340034003400340034003487
:1001D80000340034003400340034D9340134CD34D0
:1001E80001340034003400340034483465346C344D
:1001F8006C346F34203457346F3472346C34643454
:10020800213420340D340A34003440019801990116
:100218009A013F309200F0309300FE30940037305E
:100228007E01B800F030C300FC30CE00B901C40133
:10023800CF01BA01C501D0013730BB00F030C6008C
:10024800FF30D1003F30BC00F030C700FF30D20093
:1002580011307D01CB0005307E01A000BD01BE013B
:10026800BF01C801C901CA01D301D401D5010800E1
:1002780040015808FD005708FC004E294001560867
:10028800CE005508CD007C30CF005908D000803111
:100298007F2081317C0884007D0885001200031DC1
:1002A8005629572942294001D501D601080048306E
:1002B80042019F0090309D0026309E0019309B001F
:1002C8009C010030F0000030F1008131D9218131EA
:1002D8000030F0000030F1008131CD218131400142
:1002E800C801C90108008131C0218131F9304001BC
:1002F800DA008030DB008131922181310330400106
:10030800DE008A30DD005530890B8829DD0B88290D
:10031800DE0B882900327A29803114285C304001AC
:10032800DC000030D500D6005B08D8005A08D7009A
:100338005C30D90081313C2181310800F1008131E4
:10034800B1218131003A0319AA29AB29A3297108DF
:10035800F0008231042281310800F0014E018D1D28
:10036800B629B729BE2942019E1EBB29BC29BE2930
:10037800F001F00A700808008131F02181318131E3
:100388000921813181315B2181318131E52181313F
:100398000800700871040319D229D329D8297108D3
:1003A8004001C5007008C4000800700871040319F2
:1003B800DE29DF29E42971084001C7007008C6005A
:1003C80008004E010C100B140030F0000030F10052
:1003D8008131FE2181310800203051018E009101C8
:1003E8009301900192010800640080010131890B9A
:1003F800F929003471084001CB007008CA000800D0
:0A040800700842019A000800080085
:020000040001F9
:08000000FF3FFF3FFF3FFF3F00
:0A000E00EF3FE73FFF3FFF3FFF3FDA
:00000001FF
