:020000040000FA
:08000000803102288731F52F41
:100C8E0071084001DF007008DE00080071084001A5
:100C9E00E3007008E200080071084001E1007008EE
:100CAE00E000080071084001E5007008E40008004B
:100CBE00640080010131890B602E00342030510117
:100CCE008E004030910093019001920108004E0178
:100CDE008D1D722E732E6E2E700842019A00080022
:100CEE00F2007208F1007108F00086316E2686312E
:100CFE0008004E010C100030F0000030F10086317B
:100D0E005926863108008631C426863186318026E2
:100D1E00863186316526863187310E278631080069
:100D2E0058304001D8005808DB005708CF0056084D
:100D3E00CE005B30D8005808D00000308631E62651
:100D4E008631080086318A2686311A304001D60057
:100D5E008830D70086319726863103304001DD007A
:100D6E008A30DC005530890BBA2EDC0BBA2EDD0B27
:100D7E00BA2E0032AC2E80310228483042019F003C
:100D8E0080309D0026309E0019309B009C01003063
:100D9E00F0000030F10086314D2686310030F00033
:100DAE000030F1008631532686310030F0000030DD
:100DBE00F1008631472686314001C8010800400106
:100DCE00D3004F08D5004E08D400C001C101002F3A
:100DDE005430D1005108FB005008D2005208FC00DC
:100DEE00530887317B2786317B084001C0077C087A
:100DFE00C13D54088400550885001200031D082FBC
:100E0E00092FEF2E4108CF004008CE000800400108
:100E1E00980199019A013F309200F0309300FE3014
:100E2E0094007E01B801C301CE01B901C4010430A2
:100E3E00CF00BA01C501D0013730BB00F030C6007B
:100E4E00FF30D1003F30BC00F030C700FF30D20081
:100E5E000530A000BD01BE01BF01C801C901CA0114
:100E6E00D3010430D400D501080075080319402FB2
:100E7E00412F462F7508031D452F462F4B2F730804
:100E8E008631772687317A2F7508033E86008701D3
:100E9E00160001040319542F552F722F7508033EA7
:100EAE0086008701403FF600413FF700750A860035
:100EBE008701403FF800413FF9007908803AFA0077
:100ECE007708803A7A02031D6E2F7608780203188F
:100EDE00712F722F7A2F750A8600870101308107D4
:100EEE0041310318810A0800FD007B088600870146
:100EFE00403F4001C900413FCA00490884004A08EA
:100F0E0085001200253A031D8D2F8E2FD22F7B08C0
:100F1E00860087010130810741310318810AC20121
:100F2E00C301C601C701FF30C400FF30C5007B08F6
:100F3E0086008701403FC900413FCA00490884002E
:100F4E004A0885001200253A031DAE2FAF2FC72F7A
:100F5E007B08860087010130810741310318810A21
:100F6E002530F3000030F4007D08C9004908F50073
:100F7E0087313C2787310130FB000030FC00F42F15
:100F8E007B08860087010130810741310318810AF1
:100F9E00FB01FC01F42F7B0886008701403FC9004E
:100FAE00413FCA00490884004A0885000008CB006A
:100FBE00CC014B08F3004C08F4007D08CD004D0821
:100FCE00F50087313C2787317B0886008701013089
:100FDE00810741310318810AC22F08002030840096
:100FEE0000308500293086315F26873140018631F9
:100FFE00A92EC4340634003400346E340634003462
:10100E00003400340034473406344D34063453343F
:10101E00063400340034003400340034003400341C
:10102E00003400340034483465346C346C346F341E
:10103E00203457346F3472346C3464342134203499
:06104E000D340A340034E9
:020000040001F9
:04000E00ED3FE73F9C
:04001400FF3FFF3F6C
:00000001FF
