:020000040000FA
:08000000803102288731F62F40
:100CD2007108DF007008DE0008007108E10070088A
:100CE200E000080071084001E3007008E20008001B
:100CF20071084001E5007008E4000800640080010A
:100D02000131890B802E00344E018D1D852E700815
:100D120042019A000800F2007208F1007108F00026
:100D2200863185260800203051018E004030910026
:100D320093019001920108004E010C100030F00066
:100D42000030F1008631792608008631DB268631B3
:100D520086319D2686318631942686318731202739
:100D620008005830D8005808DB005708CF00560852
:100D7200CE005B30D8005808D00000308631FB2608
:100D820008008631A62686311A304001D600883006
:100D9200D7008631B226863103304001DD008A3029
:100DA200DC005530890BD32EDC0BD32EDD0BD32E7A
:100DB2000032C52E483042019F0080309D0026300F
:100DC2009E0019309B009C010030F0000030F100C1
:100DD2008631732686310030F0000030F100863112
:100DE2006E2686310030F0000030F100863169262F
:100DF200C8010800D3004F08D5004E08D400C00136
:100E0200C1015408840055088500120003191B2FE4
:100E12005430D1005108FB005008D2005208FC00A7
:100E220053088731832786317B084001C0077C083D
:100E3200C13D022F4108CF004008CE00080040010A
:100E4200980199019A013F309200F0309300FE30F0
:100E520094007E01B801C301CE01B901C40104307E
:100E6200CF00BA01C501D0013730BB00F030C60057
:100E7200FF30D1003F30BC00F030C700FF30D2005D
:100E82000530A000BD01BE01BF01C801C901CA01F0
:100E9200D3010430D400D50108007508031D75087C
:100EA200031D572F730886318C2608007508033EF0
:100EB200860087011600010403197A2F7508033E84
:100EC20086008701403FF600413FF700750A860021
:100ED2008701403FF800413FF9007908803AFA0063
:100EE2007708803A7A02031D782F76087802031871
:100EF2000800750A86008701013081074131031815
:100F0200810A0800FD007B0886008701403FC90076
:100F1200413FCA00490884004A0885001200253A68
:100F2200031DD42F7B0886008701013081074131E0
:100F32000318810AC201C301C601C701FF30C40000
:100F4200FF30C5007B0886008701403FC900413F52
:100F5200CA00490884004A0885001200253A031D88
:100F6200C92F7B08860087010130810741310318B0
:100F7200810A2530F3000030F4007D08C9004908D9
:100F8200F50087314E270130FB000030FC000800DD
:100F92007B08860087010130810741310318810AED
:100FA200FB01FC0108007B0886008701403FC90065
:100FB200413FCA00490884004A0885000008CB0066
:100FC200CC014B08F3004C08F4007D08CD004D081D
:100FD200F50087314E2787317B0886008701013073
:100FE200810741310318810AC42F20308400003068
:100FF2008500293086317F2640018631C22EDB34BE
:1010020006340034003485340634003400340034AD
:10101200003469340634733406346E3406340034D2
:10102200003400340034003400340034003400341E
:101032000034483465346C346C346F3420345734A3
:101042006F3472346C346434213420340D340A34F5
:02105200003468
:020000040001F9
:04000E00ED3FE73F9C
:04001400FF3FFF3F6C
:00000001FF
