:0400000080310E2815
:100008007E1480314E01161A0C1E0C288131722183
:100018007E100900803110284001B101B201B301FE
:10002800B401B501B6017E1040011A283120803193
:1000380062304001AC008130AD0073208031033064
:100048004001B0008A30AF005530890B2928AF0B2A
:100058002928B00B292800321C283820803140205C
:1000680080317E208031A828203051018E009101F6
:1000780093019001920108004001980199019A01A9
:100088003F309200F0309300FE30940037307E010C
:10009800B800F030C300FC30CE00B901C401CF0174
:1000A800BA01C501D0013730BB00F030C600FF30BF
:1000B800D1003F30BC00F030C700FF30D200113013
:1000C8007D01CB0005307E01A000BD01BE01BF014E
:1000D800C801C901CA01D301D401D50108002E30D5
:1000E800AE00A401A5012D08A7002C08A6002E30FB
:1000F800A800B028483042019F0090309D0026306B
:100108009E0019309B009C01F001F1019420803180
:100118000030F001F1019E204001B501B601080050
:10012800700871040319080071084001B4007008D0
:10013800B300080070087104031908007108400131
:10014800B2007008B10008004E010C100B1400300A
:10015800F001F101AF2808002708AB002608AA0023
:100168002A0884002B08850012000319C6282508D0
:10017800A1002408A0002A30A2002808A300C92052
:100188008031B428A401A501080043218031120060
:10019800253A031DD7284F2180310318810A4F21A2
:1001A8000318810A0800432180310008F200F30196
:1001B8002108F5002008F400E720803140014F2194
:1001C8000318810A0800740875040319EF287408D5
:1001D8007504031DF12872082B2956218031160059
:1001E800010403190E2956218031403FF600413F92
:1001F800F7005C218031403FF800413FF900803A28
:10020800FA007708803A7A02031D0C2976087802EA
:10021800031808005C217408840075088500403FB5
:100228000007F6000131413F003DF70076088600DF
:1002380077088700720881007408860075088700AF
:1002480001304231810741310318810A0800F10069
:1002580034218031003A03192C297108F0003F2914
:10026800F0014E018D1D3D2942019E1E3D29F001E0
:10027800F00A70080800700842019A000800220875
:1002880086008701403FFB00413FFC007B0884005B
:100298007C08850008002208860001308701810754
:1002A8004131080074088600750887004931080044
:1002B80074088600750887004231080048346534A0
:1002C8006C346C346F34203457346F3472346C347B
:0E02D8006434213420340D340A34003408001C
:020000040001F9
:08000000FF3FFF3FFF3FFF3F00
:0A000E00EF3FE73FFF3FFF3FFF3FDA
:00000001FF
