:020000040000FA
:08000000803102288731F62F40
:100D080050018C0108007108DE007008DD00080041
:100D18007108E0007008DF0008005101910193019B
:100D280092010800F10071088631A72608007108B1
:100D38004001E2007008E100080064008001013110
:100D4800890BA22E0034F0004E018D1DA82E7008CC
:100D580042019A000800873104278631863191269E
:100D680086318631842686318631E426080058305B
:100D7800FD007D08DA005708CF005608CE005A302B
:100D8800FD007D08D0000030873129270800863112
:100D9800AF26863100304001D6008830D700863132
:100DA800BB26863103304001DC008A30DB00553039
:100DB800890BDC2EDB0BDC2EDC0BDC2E0032CE2E7E
:100DC800083042019F0080309D0024309E00193079
:100DD8009B009C010030F0000030F10086319B261A
:100DE80086310030F0000030F10086318C268631E3
:100DF8000030F0000030F10086318726C801080075
:100E0800980199019A013F30920070309300FE30AA
:100E18009400FE307E01CE00F030C3003730B800B9
:100E2800C401B901CF01BA01C501D0013730BB00F7
:100E3800F030C600FF30D1003F30BC00F030C700B2
:100E4800FF30D2000530A0000800D3004F08D500BD
:100E58004E08D400C001C10154088400550885001B
:100E680012000319492F5430D1005108FA005008D4
:100E7800D2005208FB0053088731832787317A084C
:100E88004001C0077B08C13D302F4108CF00400812
:100E9800CE0008007408031D7408031D572F72083C
:100EA8008631962608007408033E860087011600DE
:100EB800010403197A2F7408033E86008701403F16
:100EC800F500413FF600740A86008701403FF700AD
:100ED800413FF8007808803AF9007608803A7902AC
:100EE800031D782F7508770203180800740A860016
:100EF80087010130810741310318810A0800FC008D
:100F08007A0886008701403FC900413FCA00490866
:100F180084004A0885001200253A031DD42F7A0858
:100F2800860087010130810741310318810AC20117
:100F3800C301C601C701FF30C400FF30C5007A08ED
:100F480086008701403FC900413FCA004908840024
:100F58004A0885001200253A031DC92F7A08860021
:100F680087010130810741310318810A2530F200D9
:100F78000030F3007C08C9004908F40087314E2787
:100F88000130FA000030FB0008007A08860087016B
:100F98000130810741310318810AFA01FB01080079
:100FA8007A0886008701403FC900413FCA004908C6
:100FB80084004A0885000008CB00CC014B08F200E9
:100FC8004C08F3007C08CD004D08F40087314E270B
:100FD80087317A088600870101308107413103187B
:100FE800810AC42F203084000030850029308631E2
:100FF800A12640018631CB2E483465346C346C34DC
:101008006F34203457346F3472346C346434213480
:0810180020340D340A340034C9
:020000040001F9
:04000E00ED3FE737A4
:04001400FF3FFF3F6C
:00000001FF
